{
  "contractName": "RideShare",
  "abi": [
    {
      "anonymous": false,
      "inputs": [
        {
          "indexed": false,
          "internalType": "string",
          "name": "rideCode",
          "type": "string"
        },
        {
          "indexed": false,
          "internalType": "address",
          "name": "driver",
          "type": "address"
        }
      ],
      "name": "RideAccepted",
      "type": "event"
    },
    {
      "anonymous": false,
      "inputs": [
        {
          "indexed": false,
          "internalType": "string",
          "name": "rideCode",
          "type": "string"
        },
        {
          "indexed": false,
          "internalType": "address",
          "name": "rider",
          "type": "address"
        }
      ],
      "name": "RideCancelled",
      "type": "event"
    },
    {
      "anonymous": false,
      "inputs": [
        {
          "indexed": false,
          "internalType": "string",
          "name": "rideCode",
          "type": "string"
        },
        {
          "indexed": false,
          "internalType": "address",
          "name": "driver",
          "type": "address"
        },
        {
          "indexed": false,
          "internalType": "uint256",
          "name": "payment",
          "type": "uint256"
        }
      ],
      "name": "RideCompleted",
      "type": "event"
    },
    {
      "anonymous": false,
      "inputs": [
        {
          "indexed": false,
          "internalType": "string",
          "name": "rideCode",
          "type": "string"
        },
        {
          "indexed": false,
          "internalType": "address",
          "name": "rider",
          "type": "address"
        },
        {
          "indexed": false,
          "internalType": "uint256",
          "name": "price",
          "type": "uint256"
        }
      ],
      "name": "RideCreated",
      "type": "event"
    },
    {
      "inputs": [
        {
          "internalType": "string",
          "name": "",
          "type": "string"
        }
      ],
      "name": "completionCodes",
      "outputs": [
        {
          "internalType": "string",
          "name": "",
          "type": "string"
        }
      ],
      "stateMutability": "view",
      "type": "function"
    },
    {
      "inputs": [
        {
          "internalType": "address",
          "name": "",
          "type": "address"
        }
      ],
      "name": "driverAvailability",
      "outputs": [
        {
          "internalType": "bool",
          "name": "",
          "type": "bool"
        }
      ],
      "stateMutability": "view",
      "type": "function"
    },
    {
      "inputs": [
        {
          "internalType": "string",
          "name": "",
          "type": "string"
        }
      ],
      "name": "rides",
      "outputs": [
        {
          "internalType": "string",
          "name": "rideCode",
          "type": "string"
        },
        {
          "internalType": "address",
          "name": "rider",
          "type": "address"
        },
        {
          "internalType": "address",
          "name": "driver",
          "type": "address"
        },
        {
          "internalType": "uint256",
          "name": "price",
          "type": "uint256"
        },
        {
          "internalType": "string",
          "name": "pickupLocation",
          "type": "string"
        },
        {
          "internalType": "string",
          "name": "dropLocation",
          "type": "string"
        },
        {
          "internalType": "uint256",
          "name": "distance",
          "type": "uint256"
        },
        {
          "internalType": "bool",
          "name": "isCompleted",
          "type": "bool"
        },
        {
          "internalType": "bool",
          "name": "isCancelled",
          "type": "bool"
        }
      ],
      "stateMutability": "view",
      "type": "function"
    },
    {
      "inputs": [
        {
          "internalType": "string",
          "name": "_pickup",
          "type": "string"
        },
        {
          "internalType": "string",
          "name": "_drop",
          "type": "string"
        },
        {
          "internalType": "uint256",
          "name": "_price",
          "type": "uint256"
        },
        {
          "internalType": "uint256",
          "name": "_distance",
          "type": "uint256"
        }
      ],
      "name": "createRide",
      "outputs": [],
      "stateMutability": "payable",
      "type": "function"
    },
    {
      "inputs": [
        {
          "internalType": "string",
          "name": "_rideCode",
          "type": "string"
        }
      ],
      "name": "acceptRide",
      "outputs": [],
      "stateMutability": "nonpayable",
      "type": "function"
    },
    {
      "inputs": [
        {
          "internalType": "string",
          "name": "_rideCode",
          "type": "string"
        },
        {
          "internalType": "string",
          "name": "_completionCode",
          "type": "string"
        }
      ],
      "name": "completeRide",
      "outputs": [],
      "stateMutability": "nonpayable",
      "type": "function"
    },
    {
      "inputs": [
        {
          "internalType": "string",
          "name": "_rideCode",
          "type": "string"
        }
      ],
      "name": "cancelRide",
      "outputs": [],
      "stateMutability": "nonpayable",
      "type": "function"
    },
    {
      "inputs": [
        {
          "internalType": "bool",
          "name": "_available",
          "type": "bool"
        }
      ],
      "name": "setDriverAvailability",
      "outputs": [],
      "stateMutability": "nonpayable",
      "type": "function"
    },
    {
      "inputs": [
        {
          "internalType": "string",
          "name": "_rideCode",
          "type": "string"
        }
      ],
      "name": "generateCompletionCode",
      "outputs": [],
      "stateMutability": "nonpayable",
      "type": "function"
    }
  ],
  "bytecode": "0x608060405234801561001057600080fd5b50611b7d806100206000396000f3fe6080604052600436106100865760003560e01c8063961da54011610059578063961da54014610157578063b98c0cc114610180578063d4126e6f146101a9578063e3abb3d5146101ee578063f5e6a7fb1461021757610086565b80630e2dee9f1461008b5780632502b3e4146100c8578063507d0060146100f1578063830600841461011a575b600080fd5b34801561009757600080fd5b506100b260048036038101906100ad9190611160565b610233565b6040516100bf91906116cd565b60405180910390f35b3480156100d457600080fd5b506100ef60048036038101906100ea9190611160565b6102e9565b005b3480156100fd57600080fd5b5061011860048036038101906101139190611160565b6103f4565b005b34801561012657600080fd5b50610141600480360381019061013c919061110e565b610648565b60405161014e91906116b2565b60405180910390f35b34801561016357600080fd5b5061017e600480360381019061017991906111a1565b610668565b005b34801561018c57600080fd5b506101a760048036038101906101a29190611137565b6108bc565b005b3480156101b557600080fd5b506101d060048036038101906101cb9190611160565b610916565b6040516101e59998979695949392919061171f565b60405180910390f35b3480156101fa57600080fd5b5061021560048036038101906102109190611160565b610b6c565b005b610231600480360381019061022c919061120d565b610d3a565b005b600281805160208101820180518482526020830160208501208183528095505050505050600091509050805461026890611a26565b80601f016020809104026020016040519081016040528092919081815260200182805461029490611a26565b80156102e15780601f106102b6576101008083540402835291602001916102e1565b820191906000526020600020905b8154815290600101906020018083116102c457829003601f168201915b505050505081565b600080826040516102fa9190611630565b908152602001604051809103902090503373ffffffffffffffffffffffffffffffffffffffff168160020160009054906101000a900473ffffffffffffffffffffffffffffffffffffffff1673ffffffffffffffffffffffffffffffffffffffff161461039c576040517f08c379a00000000000000000000000000000000000000000000000000000000081526004016103939061181f565b60405180910390fd5b42826040516020016103af92919061168a565b6040516020818303038152906040526002836040516103ce9190611630565b908152602001604051809103902090805190602001906103ef929190610fc4565b505050565b600160003373ffffffffffffffffffffffffffffffffffffffff1673ffffffffffffffffffffffffffffffffffffffff16815260200190815260200160002060009054906101000a900460ff16610480576040517f08c379a0000000000000000000000000000000000000000000000000000000008152600401610477906118bf565b60405180910390fd5b600080826040516104919190611630565b90815260200160405180910390209050600073ffffffffffffffffffffffffffffffffffffffff168160010160009054906101000a900473ffffffffffffffffffffffffffffffffffffffff1673ffffffffffffffffffffffffffffffffffffffff161415610535576040517f08c379a000000000000000000000000000000000000000000000000000000000815260040161052c9061183f565b60405180910390fd5b600073ffffffffffffffffffffffffffffffffffffffff168160020160009054906101000a900473ffffffffffffffffffffffffffffffffffffffff1673ffffffffffffffffffffffffffffffffffffffff16146105c8576040517f08c379a00000000000000000000000000000000000000000000000000000000081526004016105bf9061187f565b60405180910390fd5b338160020160006101000a81548173ffffffffffffffffffffffffffffffffffffffff021916908373ffffffffffffffffffffffffffffffffffffffff1602179055507fd497983bd2fe9b6c906b7979f2736f69c6c12fe6859674057b49029f0c441902823360405161063c9291906116ef565b60405180910390a15050565b60016020528060005260406000206000915054906101000a900460ff1681565b600080836040516106799190611630565b90815260200160405180910390209050600073ffffffffffffffffffffffffffffffffffffffff168160010160009054906101000a900473ffffffffffffffffffffffffffffffffffffffff1673ffffffffffffffffffffffffffffffffffffffff16141561071d576040517f08c379a00000000000000000000000000000000000000000000000000000000081526004016107149061183f565b60405180910390fd5b8160405160200161072e9190611630565b604051602081830303815290604052805190602001206002846040516107549190611630565b90815260200160405180910390206040516020016107729190611647565b60405160208183030381529060405280519060200120146107c8576040517f08c379a00000000000000000000000000000000000000000000000000000000081526004016107bf906117ff565b60405180910390fd5b60018160070160006101000a81548160ff0219169083151502179055508060020160009054906101000a900473ffffffffffffffffffffffffffffffffffffffff1673ffffffffffffffffffffffffffffffffffffffff166108fc82600301549081150290604051600060405180830381858888f19350505050158015610853573d6000803e3d6000fd5b507fd0b1f79c1109965ac3c59794fe104583ea62de0217fc5f9732467d0629c9394a838260020160009054906101000a900473ffffffffffffffffffffffffffffffffffffffff1683600301546040516108af939291906117c1565b60405180910390a1505050565b80600160003373ffffffffffffffffffffffffffffffffffffffff1673ffffffffffffffffffffffffffffffffffffffff16815260200190815260200160002060006101000a81548160ff02191690831515021790555050565b60008180516020810182018051848252602083016020850120818352809550505050505060009150905080600001805461094f90611a26565b80601f016020809104026020016040519081016040528092919081815260200182805461097b90611a26565b80156109c85780601f1061099d576101008083540402835291602001916109c8565b820191906000526020600020905b8154815290600101906020018083116109ab57829003601f168201915b5050505050908060010160009054906101000a900473ffffffffffffffffffffffffffffffffffffffff16908060020160009054906101000a900473ffffffffffffffffffffffffffffffffffffffff1690806003015490806004018054610a2f90611a26565b80601f0160208091040260200160405190810160405280929190818152602001828054610a5b90611a26565b8015610aa85780601f10610a7d57610100808354040283529160200191610aa8565b820191906000526020600020905b815481529060010190602001808311610a8b57829003601f168201915b505050505090806005018054610abd90611a26565b80601f0160208091040260200160405190810160405280929190818152602001828054610ae990611a26565b8015610b365780601f10610b0b57610100808354040283529160200191610b36565b820191906000526020600020905b815481529060010190602001808311610b1957829003601f168201915b5050505050908060060154908060070160009054906101000a900460ff16908060070160019054906101000a900460ff16905089565b60008082604051610b7d9190611630565b908152602001604051809103902090503373ffffffffffffffffffffffffffffffffffffffff168160010160009054906101000a900473ffffffffffffffffffffffffffffffffffffffff1673ffffffffffffffffffffffffffffffffffffffff1614610c1f576040517f08c379a0000000000000000000000000000000000000000000000000000000008152600401610c169061189f565b60405180910390fd5b8060070160009054906101000a900460ff1615610c71576040517f08c379a0000000000000000000000000000000000000000000000000000000008152600401610c689061185f565b60405180910390fd5b60018160070160016101000a81548160ff0219169083151502179055508060010160009054906101000a900473ffffffffffffffffffffffffffffffffffffffff1673ffffffffffffffffffffffffffffffffffffffff166108fc82600301549081150290604051600060405180830381858888f19350505050158015610cfc573d6000803e3d6000fd5b507f27e21ee6d2ed62b21e294c11eda9a54650da22f89d972ba48a4fbd295de7753a8233604051610d2e9291906116ef565b60405180910390a15050565b813414610d7c576040517f08c379a0000000000000000000000000000000000000000000000000000000008152600401610d73906118df565b60405180910390fd5b6000610d8733610f99565b90506040518061012001604052808281526020013373ffffffffffffffffffffffffffffffffffffffff168152602001600073ffffffffffffffffffffffffffffffffffffffff16815260200184815260200186815260200185815260200183815260200160001515815260200160001515815250600082604051610e0c9190611630565b90815260200160405180910390206000820151816000019080519060200190610e36929190610fc4565b5060208201518160010160006101000a81548173ffffffffffffffffffffffffffffffffffffffff021916908373ffffffffffffffffffffffffffffffffffffffff16021790555060408201518160020160006101000a81548173ffffffffffffffffffffffffffffffffffffffff021916908373ffffffffffffffffffffffffffffffffffffffff160217905550606082015181600301556080820151816004019080519060200190610eeb929190610fc4565b5060a0820151816005019080519060200190610f08929190610fc4565b5060c0820151816006015560e08201518160070160006101000a81548160ff0219169083151502179055506101008201518160070160016101000a81548160ff0219169083151502179055509050507ffb8842422db1070181b96d69a78286d4fef3bb4a04d1dd6257c02db0d2f71035813385604051610f8a939291906117c1565b60405180910390a15050505050565b60604282604051602001610fae92919061165e565b6040516020818303038152906040529050919050565b828054610fd090611a26565b90600052602060002090601f016020900481019282610ff25760008555611039565b82601f1061100b57805160ff1916838001178555611039565b82800160010185558215611039579182015b8281111561103857825182559160200191906001019061101d565b5b509050611046919061104a565b5090565b5b8082111561106357600081600090555060010161104b565b5090565b600061107a61107584611930565b6118ff565b90508281526020810184848401111561109257600080fd5b61109d8482856119e4565b509392505050565b6000813590506110b481611b02565b92915050565b6000813590506110c981611b19565b92915050565b600082601f8301126110e057600080fd5b81356110f0848260208601611067565b91505092915050565b60008135905061110881611b30565b92915050565b60006020828403121561112057600080fd5b600061112e848285016110a5565b91505092915050565b60006020828403121561114957600080fd5b6000611157848285016110ba565b91505092915050565b60006020828403121561117257600080fd5b600082013567ffffffffffffffff81111561118c57600080fd5b611198848285016110cf565b91505092915050565b600080604083850312156111b457600080fd5b600083013567ffffffffffffffff8111156111ce57600080fd5b6111da858286016110cf565b925050602083013567ffffffffffffffff8111156111f757600080fd5b611203858286016110cf565b9150509250929050565b6000806000806080858703121561122357600080fd5b600085013567ffffffffffffffff81111561123d57600080fd5b611249878288016110cf565b945050602085013567ffffffffffffffff81111561126657600080fd5b611272878288016110cf565b9350506040611283878288016110f9565b9250506060611294878288016110f9565b91505092959194509250565b6112a98161199c565b82525050565b6112c06112bb8261199c565b611a58565b82525050565b6112cf816119ae565b82525050565b60006112e082611975565b6112ea8185611980565b93506112fa8185602086016119f3565b61130381611ae4565b840191505092915050565b600061131982611975565b6113238185611991565b93506113338185602086016119f3565b80840191505092915050565b6000815461134c81611a26565b6113568186611991565b945060018216600081146113715760018114611382576113b5565b60ff198316865281860193506113b5565b61138b85611960565b60005b838110156113ad5781548189015260018201915060208101905061138e565b838801955050505b50505092915050565b60006113cb601783611980565b91507f496e76616c696420636f6d706c6574696f6e20636f64650000000000000000006000830152602082019050919050565b600061140b602e83611980565b91507f4f6e6c79207468652061737369676e6564206472697665722063616e2067656e60008301527f65726174652074686520636f64650000000000000000000000000000000000006020830152604082019050919050565b6000611471601383611980565b91507f5269646520646f6573206e6f74206578697374000000000000000000000000006000830152602082019050919050565b60006114b1601e83611980565b91507f43616e6e6f742063616e63656c206120636f6d706c65746564207269646500006000830152602082019050919050565b60006114f1601583611980565b91507f5269646520616c726561647920616363657074656400000000000000000000006000830152602082019050919050565b6000611531602283611980565b91507f4f6e6c79207468652072696465722063616e2063616e63656c2074686520726960008301527f64650000000000000000000000000000000000000000000000000000000000006020830152604082019050919050565b6000611597601783611980565b91507f447269766572206973206e6f7420617661696c61626c650000000000000000006000830152602082019050919050565b60006115d7601a83611980565b91507f4d757374207061792074686520707269636520757066726f6e740000000000006000830152602082019050919050565b611613816119da565b82525050565b61162a611625826119da565b611a7c565b82525050565b600061163c828461130e565b915081905092915050565b6000611653828461133f565b915081905092915050565b600061166a8285611619565b60208201915061167a82846112af565b6014820191508190509392505050565b60006116968285611619565b6020820191506116a6828461130e565b91508190509392505050565b60006020820190506116c760008301846112c6565b92915050565b600060208201905081810360008301526116e781846112d5565b905092915050565b6000604082019050818103600083015261170981856112d5565b905061171860208301846112a0565b9392505050565b600061012082019050818103600083015261173a818c6112d5565b9050611749602083018b6112a0565b611756604083018a6112a0565b611763606083018961160a565b818103608083015261177581886112d5565b905081810360a083015261178981876112d5565b905061179860c083018661160a565b6117a560e08301856112c6565b6117b36101008301846112c6565b9a9950505050505050505050565b600060608201905081810360008301526117db81866112d5565b90506117ea60208301856112a0565b6117f7604083018461160a565b949350505050565b60006020820190508181036000830152611818816113be565b9050919050565b60006020820190508181036000830152611838816113fe565b9050919050565b6000602082019050818103600083015261185881611464565b9050919050565b60006020820190508181036000830152611878816114a4565b9050919050565b60006020820190508181036000830152611898816114e4565b9050919050565b600060208201905081810360008301526118b881611524565b9050919050565b600060208201905081810360008301526118d88161158a565b9050919050565b600060208201905081810360008301526118f8816115ca565b9050919050565b6000604051905081810181811067ffffffffffffffff8211171561192657611925611ab5565b5b8060405250919050565b600067ffffffffffffffff82111561194b5761194a611ab5565b5b601f19601f8301169050602081019050919050565b60008190508160005260206000209050919050565b600081519050919050565b600082825260208201905092915050565b600081905092915050565b60006119a7826119ba565b9050919050565b60008115159050919050565b600073ffffffffffffffffffffffffffffffffffffffff82169050919050565b6000819050919050565b82818337600083830152505050565b60005b83811015611a115780820151818401526020810190506119f6565b83811115611a20576000848401525b50505050565b60006002820490506001821680611a3e57607f821691505b60208210811415611a5257611a51611a86565b5b50919050565b6000611a6382611a6a565b9050919050565b6000611a7582611af5565b9050919050565b6000819050919050565b7f4e487b7100000000000000000000000000000000000000000000000000000000600052602260045260246000fd5b7f4e487b7100000000000000000000000000000000000000000000000000000000600052604160045260246000fd5b6000601f19601f8301169050919050565b60008160601b9050919050565b611b0b8161199c565b8114611b1657600080fd5b50565b611b22816119ae565b8114611b2d57600080fd5b50565b611b39816119da565b8114611b4457600080fd5b5056fea2646970667358221220a2b00f58ae8fade3c98c4c29a278b98e65694fab22b59090a30f719062926eb464736f6c63430008000033",
  "immutableReferences": {},
  "source": "// SPDX-License-Identifier: MIT\r\npragma solidity ^0.8.0;\r\n\r\ncontract RideShare {\r\n    struct Ride {\r\n        string rideCode;\r\n        address rider;\r\n        address driver;\r\n        uint256 price;\r\n        string pickupLocation;\r\n        string dropLocation;\r\n        uint256 distance;\r\n        bool isCompleted;\r\n        bool isCancelled;\r\n    }\r\n\r\n    mapping(string => Ride) public rides;\r\n    mapping(address => bool) public driverAvailability;\r\n    mapping(string => string) public completionCodes;\r\n\r\n    event RideCreated(string rideCode, address rider, uint256 price);\r\n    event RideAccepted(string rideCode, address driver);\r\n    event RideCompleted(string rideCode, address driver, uint256 payment);\r\n    event RideCancelled(string rideCode, address rider);\r\n\r\n    function generateRideCode(address _rider) internal view returns (string memory) {\r\n        return string(abi.encodePacked(block.timestamp, _rider));\r\n    }\r\n\r\n    function createRide(string memory _pickup, string memory _drop, uint256 _price, uint256 _distance) public payable {\r\n        require(msg.value == _price, \"Must pay the price upfront\");\r\n        string memory rideCode = generateRideCode(msg.sender);\r\n\r\n        rides[rideCode] = Ride({\r\n            rideCode: rideCode,\r\n            rider: msg.sender,\r\n            driver: address(0),\r\n            price: _price,\r\n            pickupLocation: _pickup,\r\n            dropLocation: _drop,\r\n            distance: _distance,\r\n            isCompleted: false,\r\n            isCancelled: false\r\n        });\r\n\r\n        emit RideCreated(rideCode, msg.sender, _price);\r\n    }\r\n\r\n    function acceptRide(string memory _rideCode) public {\r\n        require(driverAvailability[msg.sender], \"Driver is not available\");\r\n        Ride storage ride = rides[_rideCode];\r\n        require(ride.rider != address(0), \"Ride does not exist\");\r\n        require(ride.driver == address(0), \"Ride already accepted\");\r\n\r\n        ride.driver = msg.sender;\r\n        emit RideAccepted(_rideCode, msg.sender);\r\n    }\r\n\r\n    function completeRide(string memory _rideCode, string memory _completionCode) public {\r\n        Ride storage ride = rides[_rideCode];\r\n        require(ride.rider != address(0), \"Ride does not exist\");\r\n        require(keccak256(abi.encodePacked(completionCodes[_rideCode])) == keccak256(abi.encodePacked(_completionCode)), \"Invalid completion code\");\r\n\r\n        ride.isCompleted = true;\r\n        payable(ride.driver).transfer(ride.price);\r\n\r\n        emit RideCompleted(_rideCode, ride.driver, ride.price);\r\n    }\r\n\r\n    function cancelRide(string memory _rideCode) public {\r\n        Ride storage ride = rides[_rideCode];\r\n        require(ride.rider == msg.sender, \"Only the rider can cancel the ride\");\r\n        require(!ride.isCompleted, \"Cannot cancel a completed ride\");\r\n\r\n        ride.isCancelled = true;\r\n        payable(ride.rider).transfer(ride.price);\r\n\r\n        emit RideCancelled(_rideCode, msg.sender);\r\n    }\r\n\r\n    function setDriverAvailability(bool _available) public {\r\n        driverAvailability[msg.sender] = _available;\r\n    }\r\n\r\n    function generateCompletionCode(string memory _rideCode) public {\r\n        Ride storage ride = rides[_rideCode];\r\n        require(ride.driver == msg.sender, \"Only the assigned driver can generate the code\");\r\n        completionCodes[_rideCode] = string(abi.encodePacked(block.timestamp, _rideCode));\r\n    }\r\n}\r\n",
  "sourcePath": "C:\\Users\\Aryan Gupta\\Desktop\\CCMP 603\\Backend\\contracts\\RideShare.sol",
  "compiler": {
    "name": "solc",
    "version": "0.8.0+commit.c7dfd78e.Emscripten.clang"
  },
  "schemaVersion": "3.4.16",
  "updatedAt": "2024-11-30T20:15:18.925Z",
  "devdoc": {
    "kind": "dev",
    "methods": {},
    "version": 1
  },
  "userdoc": {
    "kind": "user",
    "methods": {},
    "version": 1
  }
}