{
  "contractName": "RideSharing",
  "abi": [
    {
      "anonymous": false,
      "inputs": [
        {
          "indexed": true,
          "internalType": "uint256",
          "name": "rideId",
          "type": "uint256"
        },
        {
          "indexed": true,
          "internalType": "address",
          "name": "driver",
          "type": "address"
        }
      ],
      "name": "RideAccepted",
      "type": "event"
    },
    {
      "anonymous": false,
      "inputs": [
        {
          "indexed": true,
          "internalType": "uint256",
          "name": "rideId",
          "type": "uint256"
        },
        {
          "indexed": true,
          "internalType": "address",
          "name": "rider",
          "type": "address"
        }
      ],
      "name": "RideCancelled",
      "type": "event"
    },
    {
      "anonymous": false,
      "inputs": [
        {
          "indexed": true,
          "internalType": "uint256",
          "name": "rideId",
          "type": "uint256"
        },
        {
          "indexed": true,
          "internalType": "address",
          "name": "rider",
          "type": "address"
        },
        {
          "indexed": true,
          "internalType": "address",
          "name": "driver",
          "type": "address"
        }
      ],
      "name": "RideCompleted",
      "type": "event"
    },
    {
      "anonymous": false,
      "inputs": [
        {
          "indexed": true,
          "internalType": "uint256",
          "name": "rideId",
          "type": "uint256"
        },
        {
          "indexed": true,
          "internalType": "address",
          "name": "rider",
          "type": "address"
        },
        {
          "indexed": false,
          "internalType": "string",
          "name": "pickupLocation",
          "type": "string"
        },
        {
          "indexed": false,
          "internalType": "string",
          "name": "dropLocation",
          "type": "string"
        },
        {
          "indexed": false,
          "internalType": "uint256",
          "name": "price",
          "type": "uint256"
        },
        {
          "indexed": false,
          "internalType": "uint256",
          "name": "distance",
          "type": "uint256"
        }
      ],
      "name": "RideCreated",
      "type": "event"
    },
    {
      "inputs": [
        {
          "internalType": "address",
          "name": "",
          "type": "address"
        },
        {
          "internalType": "uint256",
          "name": "",
          "type": "uint256"
        }
      ],
      "name": "driverRides",
      "outputs": [
        {
          "internalType": "uint256",
          "name": "",
          "type": "uint256"
        }
      ],
      "stateMutability": "view",
      "type": "function",
      "constant": true
    },
    {
      "inputs": [
        {
          "internalType": "uint256",
          "name": "",
          "type": "uint256"
        }
      ],
      "name": "escrowBalances",
      "outputs": [
        {
          "internalType": "uint256",
          "name": "",
          "type": "uint256"
        }
      ],
      "stateMutability": "view",
      "type": "function",
      "constant": true
    },
    {
      "inputs": [],
      "name": "rideCounter",
      "outputs": [
        {
          "internalType": "uint256",
          "name": "",
          "type": "uint256"
        }
      ],
      "stateMutability": "view",
      "type": "function",
      "constant": true
    },
    {
      "inputs": [
        {
          "internalType": "address",
          "name": "",
          "type": "address"
        },
        {
          "internalType": "uint256",
          "name": "",
          "type": "uint256"
        }
      ],
      "name": "riderRides",
      "outputs": [
        {
          "internalType": "uint256",
          "name": "",
          "type": "uint256"
        }
      ],
      "stateMutability": "view",
      "type": "function",
      "constant": true
    },
    {
      "inputs": [
        {
          "internalType": "uint256",
          "name": "",
          "type": "uint256"
        }
      ],
      "name": "rides",
      "outputs": [
        {
          "internalType": "uint256",
          "name": "rideId",
          "type": "uint256"
        },
        {
          "internalType": "address payable",
          "name": "rider",
          "type": "address"
        },
        {
          "internalType": "address payable",
          "name": "driver",
          "type": "address"
        },
        {
          "internalType": "string",
          "name": "pickupLocation",
          "type": "string"
        },
        {
          "internalType": "string",
          "name": "dropLocation",
          "type": "string"
        },
        {
          "internalType": "uint256",
          "name": "price",
          "type": "uint256"
        },
        {
          "internalType": "uint256",
          "name": "distance",
          "type": "uint256"
        },
        {
          "internalType": "bool",
          "name": "isAccepted",
          "type": "bool"
        },
        {
          "internalType": "bool",
          "name": "isCompleted",
          "type": "bool"
        },
        {
          "internalType": "bool",
          "name": "isCancelled",
          "type": "bool"
        }
      ],
      "stateMutability": "view",
      "type": "function",
      "constant": true
    },
    {
      "stateMutability": "payable",
      "type": "receive",
      "payable": true
    },
    {
      "inputs": [
        {
          "internalType": "string",
          "name": "_pickupLocation",
          "type": "string"
        },
        {
          "internalType": "string",
          "name": "_dropLocation",
          "type": "string"
        },
        {
          "internalType": "uint256",
          "name": "_price",
          "type": "uint256"
        },
        {
          "internalType": "uint256",
          "name": "_distance",
          "type": "uint256"
        }
      ],
      "name": "createRide",
      "outputs": [],
      "stateMutability": "payable",
      "type": "function",
      "payable": true
    },
    {
      "inputs": [
        {
          "internalType": "uint256",
          "name": "_rideId",
          "type": "uint256"
        }
      ],
      "name": "acceptRide",
      "outputs": [],
      "stateMutability": "nonpayable",
      "type": "function"
    },
    {
      "inputs": [
        {
          "internalType": "uint256",
          "name": "_rideId",
          "type": "uint256"
        }
      ],
      "name": "completeRide",
      "outputs": [],
      "stateMutability": "nonpayable",
      "type": "function"
    },
    {
      "inputs": [
        {
          "internalType": "uint256",
          "name": "_rideId",
          "type": "uint256"
        }
      ],
      "name": "cancelRide",
      "outputs": [],
      "stateMutability": "nonpayable",
      "type": "function"
    },
    {
      "inputs": [],
      "name": "getAvailableRides",
      "outputs": [
        {
          "components": [
            {
              "internalType": "uint256",
              "name": "rideId",
              "type": "uint256"
            },
            {
              "internalType": "address payable",
              "name": "rider",
              "type": "address"
            },
            {
              "internalType": "address payable",
              "name": "driver",
              "type": "address"
            },
            {
              "internalType": "string",
              "name": "pickupLocation",
              "type": "string"
            },
            {
              "internalType": "string",
              "name": "dropLocation",
              "type": "string"
            },
            {
              "internalType": "uint256",
              "name": "price",
              "type": "uint256"
            },
            {
              "internalType": "uint256",
              "name": "distance",
              "type": "uint256"
            },
            {
              "internalType": "bool",
              "name": "isAccepted",
              "type": "bool"
            },
            {
              "internalType": "bool",
              "name": "isCompleted",
              "type": "bool"
            },
            {
              "internalType": "bool",
              "name": "isCancelled",
              "type": "bool"
            }
          ],
          "internalType": "struct RideSharing.Ride[]",
          "name": "",
          "type": "tuple[]"
        }
      ],
      "stateMutability": "view",
      "type": "function",
      "constant": true
    },
    {
      "inputs": [
        {
          "internalType": "address",
          "name": "rider",
          "type": "address"
        }
      ],
      "name": "getRiderRides",
      "outputs": [
        {
          "components": [
            {
              "internalType": "uint256",
              "name": "rideId",
              "type": "uint256"
            },
            {
              "internalType": "address payable",
              "name": "rider",
              "type": "address"
            },
            {
              "internalType": "address payable",
              "name": "driver",
              "type": "address"
            },
            {
              "internalType": "string",
              "name": "pickupLocation",
              "type": "string"
            },
            {
              "internalType": "string",
              "name": "dropLocation",
              "type": "string"
            },
            {
              "internalType": "uint256",
              "name": "price",
              "type": "uint256"
            },
            {
              "internalType": "uint256",
              "name": "distance",
              "type": "uint256"
            },
            {
              "internalType": "bool",
              "name": "isAccepted",
              "type": "bool"
            },
            {
              "internalType": "bool",
              "name": "isCompleted",
              "type": "bool"
            },
            {
              "internalType": "bool",
              "name": "isCancelled",
              "type": "bool"
            }
          ],
          "internalType": "struct RideSharing.Ride[]",
          "name": "",
          "type": "tuple[]"
        }
      ],
      "stateMutability": "view",
      "type": "function",
      "constant": true
    },
    {
      "inputs": [
        {
          "internalType": "address",
          "name": "driver",
          "type": "address"
        }
      ],
      "name": "getDriverRides",
      "outputs": [
        {
          "components": [
            {
              "internalType": "uint256",
              "name": "rideId",
              "type": "uint256"
            },
            {
              "internalType": "address payable",
              "name": "rider",
              "type": "address"
            },
            {
              "internalType": "address payable",
              "name": "driver",
              "type": "address"
            },
            {
              "internalType": "string",
              "name": "pickupLocation",
              "type": "string"
            },
            {
              "internalType": "string",
              "name": "dropLocation",
              "type": "string"
            },
            {
              "internalType": "uint256",
              "name": "price",
              "type": "uint256"
            },
            {
              "internalType": "uint256",
              "name": "distance",
              "type": "uint256"
            },
            {
              "internalType": "bool",
              "name": "isAccepted",
              "type": "bool"
            },
            {
              "internalType": "bool",
              "name": "isCompleted",
              "type": "bool"
            },
            {
              "internalType": "bool",
              "name": "isCancelled",
              "type": "bool"
            }
          ],
          "internalType": "struct RideSharing.Ride[]",
          "name": "",
          "type": "tuple[]"
        }
      ],
      "stateMutability": "view",
      "type": "function",
      "constant": true
    }
  ],
  "bytecode": "0x608060405234801561001057600080fd5b50612e81806100206000396000f3fe6080604052600436106100ab5760003560e01c8063b10fefc011610064578063b10fefc014610208578063c416dd0b14610233578063c51562cb1461025c578063d10bb9b514610285578063ea837acf146102c2578063f5e6a7fb146102ff576100b2565b8063358d588c146100b757806343ebf45a146100f45780635205f11214610131578063a6f07b2914610177578063a9cbcb23146101a0578063b079dae1146101cb576100b2565b366100b257005b600080fd5b3480156100c357600080fd5b506100de60048036038101906100d99190612175565b61031b565b6040516100eb9190612adc565b60405180910390f35b34801561010057600080fd5b5061011b60048036038101906101169190612244565b61034c565b6040516101289190612adc565b60405180910390f35b34801561013d57600080fd5b5061015860048036038101906101539190612244565b610364565b60405161016e9a99989796959493929190612af7565b60405180910390f35b34801561018357600080fd5b5061019e60048036038101906101999190612244565b61052f565b005b3480156101ac57600080fd5b506101b5610849565b6040516101c291906128c7565b60405180910390f35b3480156101d757600080fd5b506101f260048036038101906101ed9190612175565b610d66565b6040516101ff9190612adc565b60405180910390f35b34801561021457600080fd5b5061021d610d97565b60405161022a9190612adc565b60405180910390f35b34801561023f57600080fd5b5061025a60048036038101906102559190612244565b610d9d565b005b34801561026857600080fd5b50610283600480360381019061027e9190612244565b6110a1565b005b34801561029157600080fd5b506102ac60048036038101906102a7919061214c565b6113d2565b6040516102b991906128c7565b60405180910390f35b3480156102ce57600080fd5b506102e960048036038101906102e4919061214c565b6117e5565b6040516102f691906128c7565b60405180910390f35b610319600480360381019061031491906121b1565b611bf8565b005b6002602052816000526040600020818154811061033757600080fd5b90600052602060002001600091509150505481565b60046020528060005260406000206000915090505481565b60016020528060005260406000206000915090508060000154908060010160009054906101000a900473ffffffffffffffffffffffffffffffffffffffff16908060020160009054906101000a900473ffffffffffffffffffffffffffffffffffffffff16908060030180546103d990612d04565b80601f016020809104026020016040519081016040528092919081815260200182805461040590612d04565b80156104525780601f1061042757610100808354040283529160200191610452565b820191906000526020600020905b81548152906001019060200180831161043557829003601f168201915b50505050509080600401805461046790612d04565b80601f016020809104026020016040519081016040528092919081815260200182805461049390612d04565b80156104e05780601f106104b5576101008083540402835291602001916104e0565b820191906000526020600020905b8154815290600101906020018083116104c357829003601f168201915b5050505050908060050154908060060154908060070160009054906101000a900460ff16908060070160019054906101000a900460ff16908060070160029054906101000a900460ff1690508a565b803373ffffffffffffffffffffffffffffffffffffffff166001600083815260200190815260200160002060010160009054906101000a900473ffffffffffffffffffffffffffffffffffffffff1673ffffffffffffffffffffffffffffffffffffffff16146105d4576040517f08c379a00000000000000000000000000000000000000000000000000000000081526004016105cb906129dc565b60405180910390fd5b60006001600084815260200190815260200160002090508060070160019054906101000a900460ff161561063d576040517f08c379a0000000000000000000000000000000000000000000000000000000008152600401610634906129bc565b60405180910390fd5b8060070160029054906101000a900460ff161561068f576040517f08c379a000000000000000000000000000000000000000000000000000000000815260040161068690612a5c565b60405180910390fd5b600073ffffffffffffffffffffffffffffffffffffffff168160020160009054906101000a900473ffffffffffffffffffffffffffffffffffffffff1673ffffffffffffffffffffffffffffffffffffffff1614610722576040517f08c379a000000000000000000000000000000000000000000000000000000000815260040161071990612a3c565b60405180910390fd5b60018160070160026101000a81548160ff021916908315150217905550600060046000858152602001908152602001600020549050600060046000868152602001908152602001600020819055508160010160009054906101000a900473ffffffffffffffffffffffffffffffffffffffff1673ffffffffffffffffffffffffffffffffffffffff166108fc829081150290604051600060405180830381858888f193505050501580156107da573d6000803e3d6000fd5b508160010160009054906101000a900473ffffffffffffffffffffffffffffffffffffffff1673ffffffffffffffffffffffffffffffffffffffff16847f550d7cd00e4d9b715e29a709a3ad2de6a9af6baace938bbc3e273868c803e8fe60405160405180910390a350505050565b6060600080600190505b600054811161094357600073ffffffffffffffffffffffffffffffffffffffff166001600083815260200190815260200160002060020160009054906101000a900473ffffffffffffffffffffffffffffffffffffffff1673ffffffffffffffffffffffffffffffffffffffff161480156108ef57506001600082815260200190815260200160002060070160019054906101000a900460ff16155b801561091c57506001600082815260200190815260200160002060070160029054906101000a900460ff16155b1561093057818061092c90612d36565b9250505b808061093b90612d36565b915050610853565b5060008167ffffffffffffffff811115610986577f4e487b7100000000000000000000000000000000000000000000000000000000600052604160045260246000fd5b6040519080825280602002602001820160405280156109bf57816020015b6109ac611f92565b8152602001906001900390816109a45790505b509050600080600190505b6000548111610d5c57600073ffffffffffffffffffffffffffffffffffffffff166001600083815260200190815260200160002060020160009054906101000a900473ffffffffffffffffffffffffffffffffffffffff1673ffffffffffffffffffffffffffffffffffffffff16148015610a6657506001600082815260200190815260200160002060070160019054906101000a900460ff16155b8015610a9357506001600082815260200190815260200160002060070160029054906101000a900460ff16155b15610d49576001600082815260200190815260200160002060405180610140016040529081600082015481526020016001820160009054906101000a900473ffffffffffffffffffffffffffffffffffffffff1673ffffffffffffffffffffffffffffffffffffffff1673ffffffffffffffffffffffffffffffffffffffff1681526020016002820160009054906101000a900473ffffffffffffffffffffffffffffffffffffffff1673ffffffffffffffffffffffffffffffffffffffff1673ffffffffffffffffffffffffffffffffffffffff168152602001600382018054610b7d90612d04565b80601f0160208091040260200160405190810160405280929190818152602001828054610ba990612d04565b8015610bf65780601f10610bcb57610100808354040283529160200191610bf6565b820191906000526020600020905b815481529060010190602001808311610bd957829003601f168201915b50505050508152602001600482018054610c0f90612d04565b80601f0160208091040260200160405190810160405280929190818152602001828054610c3b90612d04565b8015610c885780601f10610c5d57610100808354040283529160200191610c88565b820191906000526020600020905b815481529060010190602001808311610c6b57829003601f168201915b5050505050815260200160058201548152602001600682015481526020016007820160009054906101000a900460ff161515151581526020016007820160019054906101000a900460ff161515151581526020016007820160029054906101000a900460ff161515151581525050838381518110610d2f577f4e487b7100000000000000000000000000000000000000000000000000000000600052603260045260246000fd5b60200260200101819052508180610d4590612d36565b9250505b8080610d5490612d36565b9150506109ca565b5081935050505090565b60036020528160005260406000208181548110610d8257600080fd5b90600052602060002001600091509150505481565b60005481565b803373ffffffffffffffffffffffffffffffffffffffff166001600083815260200190815260200160002060010160009054906101000a900473ffffffffffffffffffffffffffffffffffffffff1673ffffffffffffffffffffffffffffffffffffffff1614610e42576040517f08c379a0000000000000000000000000000000000000000000000000000000008152600401610e39906129dc565b60405180910390fd5b60006001600084815260200190815260200160002090508060070160019054906101000a900460ff1615610eab576040517f08c379a0000000000000000000000000000000000000000000000000000000008152600401610ea29061297c565b60405180910390fd5b600073ffffffffffffffffffffffffffffffffffffffff168160020160009054906101000a900473ffffffffffffffffffffffffffffffffffffffff1673ffffffffffffffffffffffffffffffffffffffff161415610f3f576040517f08c379a0000000000000000000000000000000000000000000000000000000008152600401610f369061293c565b60405180910390fd5b60018160070160016101000a81548160ff021916908315150217905550600060046000858152602001908152602001600020549050600060046000868152602001908152602001600020819055508160020160009054906101000a900473ffffffffffffffffffffffffffffffffffffffff1673ffffffffffffffffffffffffffffffffffffffff166108fc829081150290604051600060405180830381858888f19350505050158015610ff7573d6000803e3d6000fd5b508160020160009054906101000a900473ffffffffffffffffffffffffffffffffffffffff1673ffffffffffffffffffffffffffffffffffffffff168260010160009054906101000a900473ffffffffffffffffffffffffffffffffffffffff1673ffffffffffffffffffffffffffffffffffffffff16857fbb9ddb6456449420650483e45fc8227727c1d6a1fc691cd8571ef4fb3e8f22fc60405160405180910390a450505050565b6000600160008381526020019081526020016000209050600073ffffffffffffffffffffffffffffffffffffffff168160010160009054906101000a900473ffffffffffffffffffffffffffffffffffffffff1673ffffffffffffffffffffffffffffffffffffffff16141561114c576040517f08c379a00000000000000000000000000000000000000000000000000000000081526004016111439061299c565b60405180910390fd5b600073ffffffffffffffffffffffffffffffffffffffff168160020160009054906101000a900473ffffffffffffffffffffffffffffffffffffffff1673ffffffffffffffffffffffffffffffffffffffff16146111df576040517f08c379a00000000000000000000000000000000000000000000000000000000081526004016111d6906129fc565b60405180910390fd5b3373ffffffffffffffffffffffffffffffffffffffff168160010160009054906101000a900473ffffffffffffffffffffffffffffffffffffffff1673ffffffffffffffffffffffffffffffffffffffff161415611272576040517f08c379a000000000000000000000000000000000000000000000000000000000815260040161126990612a7c565b60405180910390fd5b8060070160029054906101000a900460ff16156112c4576040517f08c379a00000000000000000000000000000000000000000000000000000000081526004016112bb90612a1c565b60405180910390fd5b338160020160006101000a81548173ffffffffffffffffffffffffffffffffffffffff021916908373ffffffffffffffffffffffffffffffffffffffff16021790555060018160070160006101000a81548160ff021916908315150217905550600360003373ffffffffffffffffffffffffffffffffffffffff1673ffffffffffffffffffffffffffffffffffffffff1681526020019081526020016000208290806001815401808255809150506001900390600052602060002001600090919091909150553373ffffffffffffffffffffffffffffffffffffffff16827fcb890c33fd108e736800f548e422bb587b58384dea0bbc2849e4b904ce455bbc60405160405180910390a35050565b60606000600360008473ffffffffffffffffffffffffffffffffffffffff1673ffffffffffffffffffffffffffffffffffffffff16815260200190815260200160002080549050905060008167ffffffffffffffff81111561145d577f4e487b7100000000000000000000000000000000000000000000000000000000600052604160045260246000fd5b60405190808252806020026020018201604052801561149657816020015b611483611f92565b81526020019060019003908161147b5790505b50905060005b828110156117da5760016000600360008873ffffffffffffffffffffffffffffffffffffffff1673ffffffffffffffffffffffffffffffffffffffff168152602001908152602001600020838154811061151f577f4e487b7100000000000000000000000000000000000000000000000000000000600052603260045260246000fd5b9060005260206000200154815260200190815260200160002060405180610140016040529081600082015481526020016001820160009054906101000a900473ffffffffffffffffffffffffffffffffffffffff1673ffffffffffffffffffffffffffffffffffffffff1673ffffffffffffffffffffffffffffffffffffffff1681526020016002820160009054906101000a900473ffffffffffffffffffffffffffffffffffffffff1673ffffffffffffffffffffffffffffffffffffffff1673ffffffffffffffffffffffffffffffffffffffff16815260200160038201805461160a90612d04565b80601f016020809104026020016040519081016040528092919081815260200182805461163690612d04565b80156116835780601f1061165857610100808354040283529160200191611683565b820191906000526020600020905b81548152906001019060200180831161166657829003601f168201915b5050505050815260200160048201805461169c90612d04565b80601f01602080910402602001604051908101604052809291908181526020018280546116c890612d04565b80156117155780601f106116ea57610100808354040283529160200191611715565b820191906000526020600020905b8154815290600101906020018083116116f857829003601f168201915b5050505050815260200160058201548152602001600682015481526020016007820160009054906101000a900460ff161515151581526020016007820160019054906101000a900460ff161515151581526020016007820160029054906101000a900460ff1615151515815250508282815181106117bc577f4e487b7100000000000000000000000000000000000000000000000000000000600052603260045260246000fd5b602002602001018190525080806117d290612d36565b91505061149c565b508092505050919050565b60606000600260008473ffffffffffffffffffffffffffffffffffffffff1673ffffffffffffffffffffffffffffffffffffffff16815260200190815260200160002080549050905060008167ffffffffffffffff811115611870577f4e487b7100000000000000000000000000000000000000000000000000000000600052604160045260246000fd5b6040519080825280602002602001820160405280156118a957816020015b611896611f92565b81526020019060019003908161188e5790505b50905060005b82811015611bed5760016000600260008873ffffffffffffffffffffffffffffffffffffffff1673ffffffffffffffffffffffffffffffffffffffff1681526020019081526020016000208381548110611932577f4e487b7100000000000000000000000000000000000000000000000000000000600052603260045260246000fd5b9060005260206000200154815260200190815260200160002060405180610140016040529081600082015481526020016001820160009054906101000a900473ffffffffffffffffffffffffffffffffffffffff1673ffffffffffffffffffffffffffffffffffffffff1673ffffffffffffffffffffffffffffffffffffffff1681526020016002820160009054906101000a900473ffffffffffffffffffffffffffffffffffffffff1673ffffffffffffffffffffffffffffffffffffffff1673ffffffffffffffffffffffffffffffffffffffff168152602001600382018054611a1d90612d04565b80601f0160208091040260200160405190810160405280929190818152602001828054611a4990612d04565b8015611a965780601f10611a6b57610100808354040283529160200191611a96565b820191906000526020600020905b815481529060010190602001808311611a7957829003601f168201915b50505050508152602001600482018054611aaf90612d04565b80601f0160208091040260200160405190810160405280929190818152602001828054611adb90612d04565b8015611b285780601f10611afd57610100808354040283529160200191611b28565b820191906000526020600020905b815481529060010190602001808311611b0b57829003601f168201915b5050505050815260200160058201548152602001600682015481526020016007820160009054906101000a900460ff161515151581526020016007820160019054906101000a900460ff161515151581526020016007820160029054906101000a900460ff161515151581525050828281518110611bcf577f4e487b7100000000000000000000000000000000000000000000000000000000600052603260045260246000fd5b60200260200101819052508080611be590612d36565b9150506118af565b508092505050919050565b813414611c3a576040517f08c379a0000000000000000000000000000000000000000000000000000000008152600401611c3190612abc565b60405180910390fd5b60008211611c7d576040517f08c379a0000000000000000000000000000000000000000000000000000000008152600401611c749061295c565b60405180910390fd5b60008111611cc0576040517f08c379a0000000000000000000000000000000000000000000000000000000008152600401611cb790612a9c565b60405180910390fd5b600080815480929190611cd290612d36565b919050555060405180610140016040528060005481526020013373ffffffffffffffffffffffffffffffffffffffff168152602001600073ffffffffffffffffffffffffffffffffffffffff1681526020018581526020018481526020018381526020018281526020016000151581526020016000151581526020016000151581525060016000805481526020019081526020016000206000820151816000015560208201518160010160006101000a81548173ffffffffffffffffffffffffffffffffffffffff021916908373ffffffffffffffffffffffffffffffffffffffff16021790555060408201518160020160006101000a81548173ffffffffffffffffffffffffffffffffffffffff021916908373ffffffffffffffffffffffffffffffffffffffff1602179055506060820151816003019080519060200190611e1d929190612017565b506080820151816004019080519060200190611e3a929190612017565b5060a0820151816005015560c0820151816006015560e08201518160070160006101000a81548160ff0219169083151502179055506101008201518160070160016101000a81548160ff0219169083151502179055506101208201518160070160026101000a81548160ff021916908315150217905550905050600260003373ffffffffffffffffffffffffffffffffffffffff1673ffffffffffffffffffffffffffffffffffffffff1681526020019081526020016000206000549080600181540180825580915050600190039060005260206000200160009091909190915055346004600080548152602001908152602001600020819055503373ffffffffffffffffffffffffffffffffffffffff166000547f36e6d42a02073586548e9846366b6279a320a05df477f8cbf00d8b4b2a0dd47686868686604051611f8494939291906128e9565b60405180910390a350505050565b60405180610140016040528060008152602001600073ffffffffffffffffffffffffffffffffffffffff168152602001600073ffffffffffffffffffffffffffffffffffffffff168152602001606081526020016060815260200160008152602001600081526020016000151581526020016000151581526020016000151581525090565b82805461202390612d04565b90600052602060002090601f016020900481019282612045576000855561208c565b82601f1061205e57805160ff191683800117855561208c565b8280016001018555821561208c579182015b8281111561208b578251825591602001919060010190612070565b5b509050612099919061209d565b5090565b5b808211156120b657600081600090555060010161209e565b5090565b60006120cd6120c884612bd2565b612ba1565b9050828152602081018484840111156120e557600080fd5b6120f0848285612cc2565b509392505050565b60008135905061210781612e1d565b92915050565b600082601f83011261211e57600080fd5b813561212e8482602086016120ba565b91505092915050565b60008135905061214681612e34565b92915050565b60006020828403121561215e57600080fd5b600061216c848285016120f8565b91505092915050565b6000806040838503121561218857600080fd5b6000612196858286016120f8565b92505060206121a785828601612137565b9150509250929050565b600080600080608085870312156121c757600080fd5b600085013567ffffffffffffffff8111156121e157600080fd5b6121ed8782880161210d565b945050602085013567ffffffffffffffff81111561220a57600080fd5b6122168782880161210d565b935050604061222787828801612137565b925050606061223887828801612137565b91505092959194509250565b60006020828403121561225657600080fd5b600061226484828501612137565b91505092915050565b600061227983836127c8565b905092915050565b61228a81612c7a565b82525050565b61229981612c7a565b82525050565b60006122aa82612c12565b6122b48185612c35565b9350836020820285016122c685612c02565b8060005b8581101561230257848403895281516122e3858261226d565b94506122ee83612c28565b925060208a019950506001810190506122ca565b50829750879550505050505092915050565b61231d81612c8c565b82525050565b61232c81612c8c565b82525050565b600061233d82612c1d565b6123478185612c46565b9350612357818560208601612cd1565b61236081612e0c565b840191505092915050565b600061237682612c1d565b6123808185612c57565b9350612390818560208601612cd1565b61239981612e0c565b840191505092915050565b60006123b1602683612c57565b91507f5269646520686173206e6f74206265656e20616363657074656420627920612060008301527f64726976657200000000000000000000000000000000000000000000000000006020830152604082019050919050565b6000612417601f83612c57565b91507f5072696365206d7573742062652067726561746572207468616e207a65726f006000830152602082019050919050565b6000612457601983612c57565b91507f5269646520697320616c726561647920636f6d706c65746564000000000000006000830152602082019050919050565b6000612497601383612c57565b91507f5269646520646f6573206e6f74206578697374000000000000000000000000006000830152602082019050919050565b60006124d7601e83612c57565b91507f43616e6e6f742063616e63656c206120636f6d706c65746564207269646500006000830152602082019050919050565b6000612517602683612c57565b91507f4f6e6c79207468652072696465722063616e20706572666f726d20746869732060008301527f616374696f6e00000000000000000000000000000000000000000000000000006020830152604082019050919050565b600061257d601583612c57565b91507f5269646520616c726561647920616363657074656400000000000000000000006000830152602082019050919050565b60006125bd601183612c57565b91507f526964652069732063616e63656c6c65640000000000000000000000000000006000830152602082019050919050565b60006125fd603783612c57565b91507f43616e6e6f742063616e63656c2061207269646520746861742068617320626560008301527f656e2061636365707465642062792061206472697665720000000000000000006020830152604082019050919050565b6000612663601983612c57565b91507f5269646520697320616c72656164792063616e63656c6c6564000000000000006000830152602082019050919050565b60006126a3602283612c57565b91507f52696465722063616e6e6f7420616363657074207468656972206f776e20726960008301527f64650000000000000000000000000000000000000000000000000000000000006020830152604082019050919050565b6000612709602283612c57565b91507f44697374616e6365206d7573742062652067726561746572207468616e207a6560008301527f726f0000000000000000000000000000000000000000000000000000000000006020830152604082019050919050565b600061276f602a83612c57565b91507f496e73756666696369656e742045746865722073656e7420746f20637265617460008301527f65207468652072696465000000000000000000000000000000000000000000006020830152604082019050919050565b6000610140830160008301516127e160008601826128a9565b5060208301516127f46020860182612281565b5060408301516128076040860182612281565b506060830151848203606086015261281f8282612332565b915050608083015184820360808601526128398282612332565b91505060a083015161284e60a08601826128a9565b5060c083015161286160c08601826128a9565b5060e083015161287460e0860182612314565b50610100830151612889610100860182612314565b5061012083015161289e610120860182612314565b508091505092915050565b6128b281612cb8565b82525050565b6128c181612cb8565b82525050565b600060208201905081810360008301526128e1818461229f565b905092915050565b60006080820190508181036000830152612903818761236b565b90508181036020830152612917818661236b565b905061292660408301856128b8565b61293360608301846128b8565b95945050505050565b60006020820190508181036000830152612955816123a4565b9050919050565b600060208201905081810360008301526129758161240a565b9050919050565b600060208201905081810360008301526129958161244a565b9050919050565b600060208201905081810360008301526129b58161248a565b9050919050565b600060208201905081810360008301526129d5816124ca565b9050919050565b600060208201905081810360008301526129f58161250a565b9050919050565b60006020820190508181036000830152612a1581612570565b9050919050565b60006020820190508181036000830152612a35816125b0565b9050919050565b60006020820190508181036000830152612a55816125f0565b9050919050565b60006020820190508181036000830152612a7581612656565b9050919050565b60006020820190508181036000830152612a9581612696565b9050919050565b60006020820190508181036000830152612ab5816126fc565b9050919050565b60006020820190508181036000830152612ad581612762565b9050919050565b6000602082019050612af160008301846128b8565b92915050565b600061014082019050612b0d600083018d6128b8565b612b1a602083018c612290565b612b27604083018b612290565b8181036060830152612b39818a61236b565b90508181036080830152612b4d818961236b565b9050612b5c60a08301886128b8565b612b6960c08301876128b8565b612b7660e0830186612323565b612b84610100830185612323565b612b92610120830184612323565b9b9a5050505050505050505050565b6000604051905081810181811067ffffffffffffffff82111715612bc857612bc7612ddd565b5b8060405250919050565b600067ffffffffffffffff821115612bed57612bec612ddd565b5b601f19601f8301169050602081019050919050565b6000819050602082019050919050565b600081519050919050565b600081519050919050565b6000602082019050919050565b600082825260208201905092915050565b600082825260208201905092915050565b600082825260208201905092915050565b6000612c7382612c98565b9050919050565b6000612c8582612c98565b9050919050565b60008115159050919050565b600073ffffffffffffffffffffffffffffffffffffffff82169050919050565b6000819050919050565b82818337600083830152505050565b60005b83811015612cef578082015181840152602081019050612cd4565b83811115612cfe576000848401525b50505050565b60006002820490506001821680612d1c57607f821691505b60208210811415612d3057612d2f612dae565b5b50919050565b6000612d4182612cb8565b91507fffffffffffffffffffffffffffffffffffffffffffffffffffffffffffffffff821415612d7457612d73612d7f565b5b600182019050919050565b7f4e487b7100000000000000000000000000000000000000000000000000000000600052601160045260246000fd5b7f4e487b7100000000000000000000000000000000000000000000000000000000600052602260045260246000fd5b7f4e487b7100000000000000000000000000000000000000000000000000000000600052604160045260246000fd5b6000601f19601f8301169050919050565b612e2681612c68565b8114612e3157600080fd5b50565b612e3d81612cb8565b8114612e4857600080fd5b5056fea26469706673582212203902418998eccfade5f5ff91b90af5ec24a341a5d945d5150ebbd4b1431db14b64736f6c63430008000033",
  "immutableReferences": {},
  "source": "// SPDX-License-Identifier: MIT\r\npragma solidity ^0.8.0;\r\n\r\ncontract RideSharing {\r\n    // Struct to store ride details\r\n    struct Ride {\r\n        uint256 rideId;\r\n        address payable rider;\r\n        address payable driver;\r\n        string pickupLocation;\r\n        string dropLocation;\r\n        uint256 price; // In Wei\r\n        uint256 distance; // in meters\r\n        bool isAccepted;\r\n        bool isCompleted;\r\n        bool isCancelled;\r\n    }\r\n\r\n    // State variables\r\n    uint256 public rideCounter;\r\n    mapping(uint256 => Ride) public rides;\r\n    mapping(address => uint256[]) public riderRides; // Tracks rides by rider\r\n    mapping(address => uint256[]) public driverRides; // Tracks rides by driver\r\n    mapping(uint256 => uint256) public escrowBalances; // Tracks escrow balance for each ride\r\n\r\n    // Events\r\n    event RideCreated(\r\n        uint256 indexed rideId,\r\n        address indexed rider,\r\n        string pickupLocation,\r\n        string dropLocation,\r\n        uint256 price,\r\n        uint256 distance\r\n    );\r\n    event RideAccepted(uint256 indexed rideId, address indexed driver);\r\n    event RideCompleted(uint256 indexed rideId, address indexed rider, address indexed driver);\r\n    event RideCancelled(uint256 indexed rideId, address indexed rider);\r\n\r\n    // Modifier to ensure only the rider can modify their rides\r\n    modifier onlyRider(uint256 rideId) {\r\n        require(rides[rideId].rider == msg.sender, \"Only the rider can perform this action\");\r\n        _;\r\n    }\r\n\r\n    // Modifier to ensure only the driver can modify their accepted rides\r\n    modifier onlyDriver(uint256 rideId) {\r\n        require(rides[rideId].driver == msg.sender, \"Only the driver can perform this action\");\r\n        _;\r\n    }\r\n\r\n    // Create a ride\r\n    function createRide(\r\n        string memory _pickupLocation,\r\n        string memory _dropLocation,\r\n        uint256 _price,\r\n        uint256 _distance\r\n    ) external payable {\r\n        require(msg.value == _price, \"Insufficient Ether sent to create the ride\");\r\n        require(_price > 0, \"Price must be greater than zero\");\r\n        require(_distance > 0, \"Distance must be greater than zero\");\r\n\r\n        rideCounter++;\r\n        rides[rideCounter] = Ride({\r\n            rideId: rideCounter,\r\n            rider: payable(msg.sender),\r\n            driver: payable(address(0)),\r\n            pickupLocation: _pickupLocation,\r\n            dropLocation: _dropLocation,\r\n            price: _price,\r\n            distance: _distance,\r\n            isAccepted: false,\r\n            isCompleted: false,\r\n            isCancelled: false\r\n        });\r\n        riderRides[msg.sender].push(rideCounter);\r\n        escrowBalances[rideCounter] = msg.value; // Store Ether in escrow\r\n\r\n        emit RideCreated(rideCounter, msg.sender, _pickupLocation, _dropLocation, _price, _distance);\r\n    }\r\n\r\n    // Accept a ride\r\n    function acceptRide(uint256 _rideId) external {\r\n        Ride storage ride = rides[_rideId];\r\n        require(ride.rider != address(0), \"Ride does not exist\");\r\n        require(ride.driver == address(0), \"Ride already accepted\");\r\n        require(ride.rider != msg.sender, \"Rider cannot accept their own ride\");\r\n        require(!ride.isCancelled, \"Ride is cancelled\");\r\n\r\n        ride.driver = payable(msg.sender);\r\n        ride.isAccepted = true;\r\n        driverRides[msg.sender].push(_rideId);\r\n\r\n        emit RideAccepted(_rideId, msg.sender);\r\n    }\r\n\r\n    // Complete a ride\r\n    function completeRide(uint256 _rideId) external onlyRider(_rideId) {\r\n        Ride storage ride = rides[_rideId];\r\n        require(!ride.isCompleted, \"Ride is already completed\");\r\n        require(ride.driver != address(0), \"Ride has not been accepted by a driver\");\r\n\r\n        ride.isCompleted = true;\r\n\r\n        // Transfer Ether from escrow to driver\r\n        uint256 amount = escrowBalances[_rideId];\r\n        escrowBalances[_rideId] = 0; // Clear escrow balance\r\n        ride.driver.transfer(amount);\r\n\r\n        emit RideCompleted(_rideId, ride.rider, ride.driver);\r\n    }\r\n\r\n    // Cancel a ride\r\n    function cancelRide(uint256 _rideId) external onlyRider(_rideId) {\r\n        Ride storage ride = rides[_rideId];\r\n        require(!ride.isCompleted, \"Cannot cancel a completed ride\");\r\n        require(!ride.isCancelled, \"Ride is already cancelled\");\r\n        require(ride.driver == address(0), \"Cannot cancel a ride that has been accepted by a driver\");\r\n\r\n        ride.isCancelled = true;\r\n\r\n        // Refund Ether from escrow to rider\r\n        uint256 amount = escrowBalances[_rideId];\r\n        escrowBalances[_rideId] = 0; // Clear escrow balance\r\n        ride.rider.transfer(amount);\r\n\r\n        emit RideCancelled(_rideId, ride.rider);\r\n    }\r\n\r\n    // Get all available rides\r\n    function getAvailableRides() external view returns (Ride[] memory) {\r\n        uint256 availableCount = 0;\r\n\r\n        // Count available rides\r\n        for (uint256 i = 1; i <= rideCounter; i++) {\r\n            if (rides[i].driver == address(0) && !rides[i].isCompleted && !rides[i].isCancelled) {\r\n                availableCount++;\r\n            }\r\n        }\r\n\r\n        // Create an array for available rides\r\n        Ride[] memory availableRides = new Ride[](availableCount);\r\n        uint256 index = 0;\r\n\r\n        for (uint256 i = 1; i <= rideCounter; i++) {\r\n            if (rides[i].driver == address(0) && !rides[i].isCompleted && !rides[i].isCancelled) {\r\n                availableRides[index] = rides[i];\r\n                index++;\r\n            }\r\n        }\r\n\r\n        return availableRides;\r\n    }\r\n\r\n    // Get rider rides\r\n    function getRiderRides(address rider) external view returns (Ride[] memory) {\r\n        uint256 rideCount = riderRides[rider].length;\r\n        Ride[] memory riderRideList = new Ride[](rideCount);\r\n\r\n        for (uint256 i = 0; i < rideCount; i++) {\r\n            riderRideList[i] = rides[riderRides[rider][i]];\r\n        }\r\n\r\n        return riderRideList;\r\n    }\r\n\r\n    // Get driver rides\r\n    function getDriverRides(address driver) external view returns (Ride[] memory) {\r\n        uint256 rideCount = driverRides[driver].length;\r\n        Ride[] memory driverRideList = new Ride[](rideCount);\r\n\r\n        for (uint256 i = 0; i < rideCount; i++) {\r\n            driverRideList[i] = rides[driverRides[driver][i]];\r\n        }\r\n\r\n        return driverRideList;\r\n    }\r\n\r\n    // Fallback function to accept Ether payments\r\n    receive() external payable {}\r\n}\r\n",
  "sourcePath": "C:\\Users\\Aryan Gupta\\Desktop\\CCMP 603\\Backend\\contracts\\RideShare.sol",
  "compiler": {
    "name": "solc",
    "version": "0.8.0+commit.c7dfd78e.Emscripten.clang"
  },
  "schemaVersion": "3.4.16",
  "updatedAt": "2024-12-07T22:46:08.650Z",
  "networkType": "ethereum",
  "devdoc": {
    "kind": "dev",
    "methods": {},
    "version": 1
  },
  "userdoc": {
    "kind": "user",
    "methods": {},
    "version": 1
  }
}