{
  "contractName": "DecentralizedRideSharing",
  "abi": [
    {
      "inputs": [
        {
          "internalType": "uint256",
          "name": "",
          "type": "uint256"
        }
      ],
      "name": "availableRides",
      "outputs": [
        {
          "internalType": "string",
          "name": "",
          "type": "string"
        }
      ],
      "stateMutability": "view",
      "type": "function",
      "constant": true
    },
    {
      "inputs": [
        {
          "internalType": "string",
          "name": "",
          "type": "string"
        }
      ],
      "name": "rides",
      "outputs": [
        {
          "internalType": "address",
          "name": "rider",
          "type": "address"
        },
        {
          "internalType": "address",
          "name": "driver",
          "type": "address"
        },
        {
          "internalType": "uint256",
          "name": "price",
          "type": "uint256"
        },
        {
          "internalType": "string",
          "name": "pickupLocation",
          "type": "string"
        },
        {
          "internalType": "string",
          "name": "dropLocation",
          "type": "string"
        },
        {
          "internalType": "bool",
          "name": "isCompleted",
          "type": "bool"
        }
      ],
      "stateMutability": "view",
      "type": "function",
      "constant": true
    },
    {
      "inputs": [
        {
          "internalType": "string",
          "name": "_rideCode",
          "type": "string"
        },
        {
          "internalType": "uint256",
          "name": "_price",
          "type": "uint256"
        },
        {
          "internalType": "string",
          "name": "_pickupLocation",
          "type": "string"
        },
        {
          "internalType": "string",
          "name": "_dropLocation",
          "type": "string"
        }
      ],
      "name": "createRide",
      "outputs": [],
      "stateMutability": "payable",
      "type": "function",
      "payable": true
    },
    {
      "inputs": [
        {
          "internalType": "string",
          "name": "_rideCode",
          "type": "string"
        }
      ],
      "name": "acceptRide",
      "outputs": [],
      "stateMutability": "nonpayable",
      "type": "function"
    },
    {
      "inputs": [
        {
          "internalType": "string",
          "name": "_rideCode",
          "type": "string"
        }
      ],
      "name": "completeRide",
      "outputs": [],
      "stateMutability": "nonpayable",
      "type": "function"
    },
    {
      "inputs": [],
      "name": "getAvailableRides",
      "outputs": [
        {
          "components": [
            {
              "internalType": "address",
              "name": "rider",
              "type": "address"
            },
            {
              "internalType": "address",
              "name": "driver",
              "type": "address"
            },
            {
              "internalType": "uint256",
              "name": "price",
              "type": "uint256"
            },
            {
              "internalType": "string",
              "name": "pickupLocation",
              "type": "string"
            },
            {
              "internalType": "string",
              "name": "dropLocation",
              "type": "string"
            },
            {
              "internalType": "bool",
              "name": "isCompleted",
              "type": "bool"
            }
          ],
          "internalType": "struct DecentralizedRideSharing.Ride[]",
          "name": "",
          "type": "tuple[]"
        }
      ],
      "stateMutability": "view",
      "type": "function",
      "constant": true
    }
  ],
  "bytecode": "0x608060405234801561001057600080fd5b50611a99806100206000396000f3fe6080604052600436106100555760003560e01c8063507d00601461005a578063710214321461008357806385ef9dda146100ac578063a9cbcb23146100c8578063d4126e6f146100f3578063f985336f14610135575b600080fd5b34801561006657600080fd5b50610081600480360381019061007c9190610feb565b610172565b005b34801561008f57600080fd5b506100aa60048036038101906100a59190610feb565b61042a565b005b6100c660048036038101906100c1919061102c565b6105cf565b005b3480156100d457600080fd5b506100dd6108b7565b6040516100ea919061167e565b60405180910390f35b3480156100ff57600080fd5b5061011a60048036038101906101159190610feb565b610c0c565b60405161012c9695949392919061160f565b60405180910390f35b34801561014157600080fd5b5061015c600480360381019061015791906110d7565b610dbb565b60405161016991906116a0565b60405180910390f35b60008151116101b6576040517f08c379a00000000000000000000000000000000000000000000000000000000081526004016101ad90611742565b60405180910390fd5b600073ffffffffffffffffffffffffffffffffffffffff166000826040516101de91906115e1565b908152602001604051809103902060000160009054906101000a900473ffffffffffffffffffffffffffffffffffffffff1673ffffffffffffffffffffffffffffffffffffffff161415610267576040517f08c379a000000000000000000000000000000000000000000000000000000000815260040161025e90611702565b60405180910390fd5b600073ffffffffffffffffffffffffffffffffffffffff1660008260405161028f91906115e1565b908152602001604051809103902060010160009054906101000a900473ffffffffffffffffffffffffffffffffffffffff1673ffffffffffffffffffffffffffffffffffffffff1614610317576040517f08c379a000000000000000000000000000000000000000000000000000000000815260040161030e90611722565b60405180910390fd5b3373ffffffffffffffffffffffffffffffffffffffff1660008260405161033e91906115e1565b908152602001604051809103902060000160009054906101000a900473ffffffffffffffffffffffffffffffffffffffff1673ffffffffffffffffffffffffffffffffffffffff1614156103c7576040517f08c379a00000000000000000000000000000000000000000000000000000000081526004016103be90611782565b60405180910390fd5b336000826040516103d891906115e1565b908152602001604051809103902060010160006101000a81548173ffffffffffffffffffffffffffffffffffffffff021916908373ffffffffffffffffffffffffffffffffffffffff16021790555050565b600081511161046e576040517f08c379a000000000000000000000000000000000000000000000000000000000815260040161046590611742565b60405180910390fd5b3373ffffffffffffffffffffffffffffffffffffffff1660008260405161049591906115e1565b908152602001604051809103902060000160009054906101000a900473ffffffffffffffffffffffffffffffffffffffff1673ffffffffffffffffffffffffffffffffffffffff161461051d576040517f08c379a0000000000000000000000000000000000000000000000000000000008152600401610514906116c2565b60405180910390fd5b6000151560008260405161053191906115e1565b908152602001604051809103902060050160009054906101000a900460ff16151514610592576040517f08c379a0000000000000000000000000000000000000000000000000000000008152600401610589906116e2565b60405180910390fd5b60016000826040516105a491906115e1565b908152602001604051809103902060050160006101000a81548160ff02191690831515021790555050565b6000845111610613576040517f08c379a000000000000000000000000000000000000000000000000000000000815260040161060a90611742565b60405180910390fd5b823414610655576040517f08c379a000000000000000000000000000000000000000000000000000000000815260040161064c90611762565b60405180910390fd5b600073ffffffffffffffffffffffffffffffffffffffff1660008560405161067d91906115e1565b908152602001604051809103902060000160009054906101000a900473ffffffffffffffffffffffffffffffffffffffff1673ffffffffffffffffffffffffffffffffffffffff1614610705576040517f08c379a00000000000000000000000000000000000000000000000000000000081526004016106fc906117a2565b60405180910390fd5b6040518060c001604052803373ffffffffffffffffffffffffffffffffffffffff168152602001600073ffffffffffffffffffffffffffffffffffffffff1681526020018481526020018381526020018281526020016000151581525060008560405161077291906115e1565b908152602001604051809103902060008201518160000160006101000a81548173ffffffffffffffffffffffffffffffffffffffff021916908373ffffffffffffffffffffffffffffffffffffffff16021790555060208201518160010160006101000a81548173ffffffffffffffffffffffffffffffffffffffff021916908373ffffffffffffffffffffffffffffffffffffffff160217905550604082015181600201556060820151816003019080519060200190610834929190610e67565b506080820151816004019080519060200190610851929190610e67565b5060a08201518160050160006101000a81548160ff0219169083151502179055509050506001849080600181540180825580915050600190039060005260206000200160009091909190915090805190602001906108b0929190610e67565b5050505050565b6060600060018054905067ffffffffffffffff811115610900577f4e487b7100000000000000000000000000000000000000000000000000000000600052604160045260246000fd5b60405190808252806020026020018201604052801561093957816020015b610926610eed565b81526020019060019003908161091e5790505b50905060005b600180549050811015610c0457600060018281548110610988577f4e487b7100000000000000000000000000000000000000000000000000000000600052603260045260246000fd5b9060005260206000200160405161099f91906115f8565b90815260200160405180910390206040518060c00160405290816000820160009054906101000a900473ffffffffffffffffffffffffffffffffffffffff1673ffffffffffffffffffffffffffffffffffffffff1673ffffffffffffffffffffffffffffffffffffffff1681526020016001820160009054906101000a900473ffffffffffffffffffffffffffffffffffffffff1673ffffffffffffffffffffffffffffffffffffffff1673ffffffffffffffffffffffffffffffffffffffff16815260200160028201548152602001600382018054610a7e90611933565b80601f0160208091040260200160405190810160405280929190818152602001828054610aaa90611933565b8015610af75780601f10610acc57610100808354040283529160200191610af7565b820191906000526020600020905b815481529060010190602001808311610ada57829003601f168201915b50505050508152602001600482018054610b1090611933565b80601f0160208091040260200160405190810160405280929190818152602001828054610b3c90611933565b8015610b895780601f10610b5e57610100808354040283529160200191610b89565b820191906000526020600020905b815481529060010190602001808311610b6c57829003601f168201915b505050505081526020016005820160009054906101000a900460ff161515151581525050828281518110610be6577f4e487b7100000000000000000000000000000000000000000000000000000000600052603260045260246000fd5b60200260200101819052508080610bfc90611965565b91505061093f565b508091505090565b6000818051602081018201805184825260208301602085012081835280955050505050506000915090508060000160009054906101000a900473ffffffffffffffffffffffffffffffffffffffff16908060010160009054906101000a900473ffffffffffffffffffffffffffffffffffffffff1690806002015490806003018054610c9790611933565b80601f0160208091040260200160405190810160405280929190818152602001828054610cc390611933565b8015610d105780601f10610ce557610100808354040283529160200191610d10565b820191906000526020600020905b815481529060010190602001808311610cf357829003601f168201915b505050505090806004018054610d2590611933565b80601f0160208091040260200160405190810160405280929190818152602001828054610d5190611933565b8015610d9e5780601f10610d7357610100808354040283529160200191610d9e565b820191906000526020600020905b815481529060010190602001808311610d8157829003601f168201915b5050505050908060050160009054906101000a900460ff16905086565b60018181548110610dcb57600080fd5b906000526020600020016000915090508054610de690611933565b80601f0160208091040260200160405190810160405280929190818152602001828054610e1290611933565b8015610e5f5780601f10610e3457610100808354040283529160200191610e5f565b820191906000526020600020905b815481529060010190602001808311610e4257829003601f168201915b505050505081565b828054610e7390611933565b90600052602060002090601f016020900481019282610e955760008555610edc565b82601f10610eae57805160ff1916838001178555610edc565b82800160010185558215610edc579182015b82811115610edb578251825591602001919060010190610ec0565b5b509050610ee99190610f51565b5090565b6040518060c00160405280600073ffffffffffffffffffffffffffffffffffffffff168152602001600073ffffffffffffffffffffffffffffffffffffffff1681526020016000815260200160608152602001606081526020016000151581525090565b5b80821115610f6a576000816000905550600101610f52565b5090565b6000610f81610f7c846117f3565b6117c2565b905082815260208101848484011115610f9957600080fd5b610fa48482856118f1565b509392505050565b600082601f830112610fbd57600080fd5b8135610fcd848260208601610f6e565b91505092915050565b600081359050610fe581611a4c565b92915050565b600060208284031215610ffd57600080fd5b600082013567ffffffffffffffff81111561101757600080fd5b61102384828501610fac565b91505092915050565b6000806000806080858703121561104257600080fd5b600085013567ffffffffffffffff81111561105c57600080fd5b61106887828801610fac565b945050602061107987828801610fd6565b935050604085013567ffffffffffffffff81111561109657600080fd5b6110a287828801610fac565b925050606085013567ffffffffffffffff8111156110bf57600080fd5b6110cb87828801610fac565b91505092959194509250565b6000602082840312156110e957600080fd5b60006110f784828501610fd6565b91505092915050565b600061110c8383611533565b905092915050565b61111d816118a9565b82525050565b61112c816118a9565b82525050565b600061113d82611848565b611147818561186b565b93508360208202850161115985611823565b8060005b8581101561119557848403895281516111768582611100565b94506111818361185e565b925060208a0199505060018101905061115d565b50829750879550505050505092915050565b6111b0816118bb565b82525050565b6111bf816118bb565b82525050565b60006111d082611853565b6111da818561187c565b93506111ea818560208601611900565b6111f381611a3b565b840191505092915050565b600061120982611853565b611213818561188d565b9350611223818560208601611900565b61122c81611a3b565b840191505092915050565b600061124282611853565b61124c818561189e565b935061125c818560208601611900565b80840191505092915050565b6000815461127581611933565b61127f818661189e565b9450600182166000811461129a57600181146112ab576112de565b60ff198316865281860193506112de565b6112b485611833565b60005b838110156112d6578154818901526001820191506020810190506112b7565b838801955050505b50505092915050565b60006112f460258361188d565b91507f4f6e6c79207468652072696465722063616e20636f6d706c657465207468697360008301527f20726964650000000000000000000000000000000000000000000000000000006020830152604082019050919050565b600061135a60198361188d565b91507f5269646520697320616c726561647920636f6d706c65746564000000000000006000830152602082019050919050565b600061139a60138361188d565b91507f5269646520646f6573206e6f74206578697374000000000000000000000000006000830152602082019050919050565b60006113da60158361188d565b91507f5269646520616c726561647920616363657074656400000000000000000000006000830152602082019050919050565b600061141a60158361188d565b91507f5269646520636f646520697320726571756972656400000000000000000000006000830152602082019050919050565b600061145a601a8361188d565b91507f5072696365206d757374206265207061696420757066726f6e740000000000006000830152602082019050919050565b600061149a60238361188d565b91507f526964657220616e64206472697665722063616e6e6f7420626520746865207360008301527f616d6500000000000000000000000000000000000000000000000000000000006020830152604082019050919050565b600061150060188361188d565b91507f5269646520636f646520616c72656164792065786973747300000000000000006000830152602082019050919050565b600060c08301600083015161154b6000860182611114565b50602083015161155e6020860182611114565b50604083015161157160408601826115c3565b506060830151848203606086015261158982826111c5565b915050608083015184820360808601526115a382826111c5565b91505060a08301516115b860a08601826111a7565b508091505092915050565b6115cc816118e7565b82525050565b6115db816118e7565b82525050565b60006115ed8284611237565b915081905092915050565b60006116048284611268565b915081905092915050565b600060c0820190506116246000830189611123565b6116316020830188611123565b61163e60408301876115d2565b818103606083015261165081866111fe565b9050818103608083015261166481856111fe565b905061167360a08301846111b6565b979650505050505050565b600060208201905081810360008301526116988184611132565b905092915050565b600060208201905081810360008301526116ba81846111fe565b905092915050565b600060208201905081810360008301526116db816112e7565b9050919050565b600060208201905081810360008301526116fb8161134d565b9050919050565b6000602082019050818103600083015261171b8161138d565b9050919050565b6000602082019050818103600083015261173b816113cd565b9050919050565b6000602082019050818103600083015261175b8161140d565b9050919050565b6000602082019050818103600083015261177b8161144d565b9050919050565b6000602082019050818103600083015261179b8161148d565b9050919050565b600060208201905081810360008301526117bb816114f3565b9050919050565b6000604051905081810181811067ffffffffffffffff821117156117e9576117e8611a0c565b5b8060405250919050565b600067ffffffffffffffff82111561180e5761180d611a0c565b5b601f19601f8301169050602081019050919050565b6000819050602082019050919050565b60008190508160005260206000209050919050565b600081519050919050565b600081519050919050565b6000602082019050919050565b600082825260208201905092915050565b600082825260208201905092915050565b600082825260208201905092915050565b600081905092915050565b60006118b4826118c7565b9050919050565b60008115159050919050565b600073ffffffffffffffffffffffffffffffffffffffff82169050919050565b6000819050919050565b82818337600083830152505050565b60005b8381101561191e578082015181840152602081019050611903565b8381111561192d576000848401525b50505050565b6000600282049050600182168061194b57607f821691505b6020821081141561195f5761195e6119dd565b5b50919050565b6000611970826118e7565b91507fffffffffffffffffffffffffffffffffffffffffffffffffffffffffffffffff8214156119a3576119a26119ae565b5b600182019050919050565b7f4e487b7100000000000000000000000000000000000000000000000000000000600052601160045260246000fd5b7f4e487b7100000000000000000000000000000000000000000000000000000000600052602260045260246000fd5b7f4e487b7100000000000000000000000000000000000000000000000000000000600052604160045260246000fd5b6000601f19601f8301169050919050565b611a55816118e7565b8114611a6057600080fd5b5056fea26469706673582212204fdd44948880b68e8234d96d799e6cb911b28a40b7c8e5695a203dc26f50942c64736f6c63430008000033",
  "immutableReferences": {},
  "source": "// SPDX-License-Identifier: MIT\r\npragma solidity ^0.8.0;\r\n\r\ncontract DecentralizedRideSharing {\r\n    struct Ride {\r\n        address rider;\r\n        address driver;\r\n        uint256 price;\r\n        string pickupLocation;\r\n        string dropLocation;\r\n        bool isCompleted;\r\n    }\r\n\r\n    mapping(string => Ride) public rides;\r\n    string[] public availableRides;\r\n\r\n    // Create a new ride (Rider function)\r\n    function createRide(\r\n        string memory _rideCode,\r\n        uint256 _price,\r\n        string memory _pickupLocation,\r\n        string memory _dropLocation\r\n    ) public payable {\r\n        require(bytes(_rideCode).length > 0, \"Ride code is required\");\r\n        require(msg.value == _price, \"Price must be paid upfront\");\r\n        require(rides[_rideCode].rider == address(0), \"Ride code already exists\");\r\n\r\n        rides[_rideCode] = Ride({\r\n            rider: msg.sender,\r\n            driver: address(0),\r\n            price: _price,\r\n            pickupLocation: _pickupLocation,\r\n            dropLocation: _dropLocation,\r\n            isCompleted: false\r\n        });\r\n\r\n        availableRides.push(_rideCode);\r\n    }\r\n\r\n    // Accept a ride (Driver function)\r\n    function acceptRide(string memory _rideCode) public {\r\n        require(bytes(_rideCode).length > 0, \"Ride code is required\");\r\n        require(rides[_rideCode].rider != address(0), \"Ride does not exist\");\r\n        require(rides[_rideCode].driver == address(0), \"Ride already accepted\");\r\n        require(rides[_rideCode].rider != msg.sender, \"Rider and driver cannot be the same\");\r\n\r\n        rides[_rideCode].driver = msg.sender;\r\n    }\r\n\r\n    // Complete a ride (Rider function)\r\n    function completeRide(string memory _rideCode) public {\r\n        require(bytes(_rideCode).length > 0, \"Ride code is required\");\r\n        require(rides[_rideCode].rider == msg.sender, \"Only the rider can complete this ride\");\r\n        require(rides[_rideCode].isCompleted == false, \"Ride is already completed\");\r\n\r\n        rides[_rideCode].isCompleted = true;\r\n    }\r\n\r\n    // Get available rides\r\n    function getAvailableRides() public view returns (Ride[] memory) {\r\n        Ride[] memory details = new Ride[](availableRides.length);\r\n        for (uint256 i = 0; i < availableRides.length; i++) {\r\n            details[i] = rides[availableRides[i]];\r\n        }\r\n        return details;\r\n    }\r\n}\r\n",
  "sourcePath": "C:\\Users\\Aryan Gupta\\Desktop\\CCMP 603\\RideShare\\contracts\\RideSharing.sol",
  "compiler": {
    "name": "solc",
    "version": "0.8.0+commit.c7dfd78e.Emscripten.clang"
  },
  "schemaVersion": "3.4.16",
  "updatedAt": "2024-11-29T18:20:50.069Z",
  "networkType": "ethereum",
  "devdoc": {
    "kind": "dev",
    "methods": {},
    "version": 1
  },
  "userdoc": {
    "kind": "user",
    "methods": {},
    "version": 1
  }
}